{
  "_format": "hh-sol-artifact-1",
  "contractName": "EtherStaking",
  "sourceName": "contracts/EthStaking.sol",
  "abi": [
    {
      "inputs": [
        {
          "internalType": "uint256",
          "name": "_rewardRate",
          "type": "uint256"
        },
        {
          "internalType": "uint256",
          "name": "_stakingPeriod",
          "type": "uint256"
        }
      ],
      "stateMutability": "nonpayable",
      "type": "constructor"
    },
    {
      "anonymous": false,
      "inputs": [
        {
          "indexed": true,
          "internalType": "address",
          "name": "user",
          "type": "address"
        },
        {
          "indexed": false,
          "internalType": "uint256",
          "name": "amount",
          "type": "uint256"
        },
        {
          "indexed": false,
          "internalType": "uint256",
          "name": "time",
          "type": "uint256"
        }
      ],
      "name": "Staked",
      "type": "event"
    },
    {
      "anonymous": false,
      "inputs": [
        {
          "indexed": true,
          "internalType": "address",
          "name": "user",
          "type": "address"
        },
        {
          "indexed": false,
          "internalType": "uint256",
          "name": "amount",
          "type": "uint256"
        },
        {
          "indexed": false,
          "internalType": "uint256",
          "name": "reward",
          "type": "uint256"
        }
      ],
      "name": "Withdrawn",
      "type": "event"
    },
    {
      "inputs": [
        {
          "internalType": "address",
          "name": "staker",
          "type": "address"
        }
      ],
      "name": "calculateReward",
      "outputs": [
        {
          "internalType": "uint256",
          "name": "",
          "type": "uint256"
        }
      ],
      "stateMutability": "view",
      "type": "function"
    },
    {
      "inputs": [],
      "name": "owner",
      "outputs": [
        {
          "internalType": "address",
          "name": "",
          "type": "address"
        }
      ],
      "stateMutability": "view",
      "type": "function"
    },
    {
      "inputs": [],
      "name": "rewardRate",
      "outputs": [
        {
          "internalType": "uint256",
          "name": "",
          "type": "uint256"
        }
      ],
      "stateMutability": "view",
      "type": "function"
    },
    {
      "inputs": [
        {
          "internalType": "uint256",
          "name": "_rewardRate",
          "type": "uint256"
        }
      ],
      "name": "setRewardRate",
      "outputs": [],
      "stateMutability": "nonpayable",
      "type": "function"
    },
    {
      "inputs": [
        {
          "internalType": "uint256",
          "name": "_stakingPeriod",
          "type": "uint256"
        }
      ],
      "name": "setStakingPeriod",
      "outputs": [],
      "stateMutability": "nonpayable",
      "type": "function"
    },
    {
      "inputs": [],
      "name": "stakeEther",
      "outputs": [],
      "stateMutability": "payable",
      "type": "function"
    },
    {
      "inputs": [
        {
          "internalType": "address",
          "name": "",
          "type": "address"
        }
      ],
      "name": "stakes",
      "outputs": [
        {
          "internalType": "uint256",
          "name": "amount",
          "type": "uint256"
        },
        {
          "internalType": "uint256",
          "name": "startTime",
          "type": "uint256"
        },
        {
          "internalType": "bool",
          "name": "withdrawn",
          "type": "bool"
        }
      ],
      "stateMutability": "view",
      "type": "function"
    },
    {
      "inputs": [],
      "name": "stakingPeriod",
      "outputs": [
        {
          "internalType": "uint256",
          "name": "",
          "type": "uint256"
        }
      ],
      "stateMutability": "view",
      "type": "function"
    },
    {
      "inputs": [],
      "name": "withdraw",
      "outputs": [],
      "stateMutability": "nonpayable",
      "type": "function"
    },
    {
      "inputs": [],
      "name": "withdrawContractBalance",
      "outputs": [],
      "stateMutability": "nonpayable",
      "type": "function"
    },
    {
      "stateMutability": "payable",
      "type": "receive"
    }
  ],
  "bytecode": "0x608060405234801561001057600080fd5b5060405161090d38038061090d83398101604081905261002f91610098565b600082116100585760405162461bcd60e51b815260040161004f906100bb565b60405180910390fd5b600081116100785760405162461bcd60e51b815260040161004f906100fd565b600191909155600255600380546001600160a01b03191633179055610142565b600080604083850312156100aa578182fd5b505080516020909101519092909150565b60208082526022908201527f5265776172642072617465206d7573742062652067726561746572207468616e604082015261020360f41b606082015260800190565b60208082526025908201527f5374616b696e6720706572696f64206d75737420626520677265617465722074604082015264068616e20360dc1b606082015260800190565b6107bc806101516000396000f3fe6080604052600436106100955760003560e01c80639e447fc6116100595780639e447fc614610154578063bfab3db914610174578063c03d5b4714610189578063d21577f21461019e578063d82e3962146101a65761009c565b806316934fc4146100a15780633ccfd60b146100d95780637b0a47ee146100f05780638da5cb5b14610112578063957d7780146101345761009c565b3661009c57005b600080fd5b3480156100ad57600080fd5b506100c16100bc36600461055c565b6101c6565b6040516100d0939291906106ea565b60405180910390f35b3480156100e557600080fd5b506100ee6101ea565b005b3480156100fc57600080fd5b50610105610317565b6040516100d091906106d3565b34801561011e57600080fd5b5061012761031d565b6040516100d091906105a2565b34801561014057600080fd5b506100ee61014f36600461058a565b61032c565b34801561016057600080fd5b506100ee61016f36600461058a565b61035b565b34801561018057600080fd5b506100ee61038a565b34801561019557600080fd5b506101056103f0565b6100ee6103f6565b3480156101b257600080fd5b506101056101c136600461055c565b6104ca565b60006020819052908152604090208054600182015460029092015490919060ff1683565b33600090815260208190526040902080546102205760405162461bcd60e51b815260040161021790610668565b60405180910390fd5b600281015460ff16156102455760405162461bcd60e51b815260040161021790610616565b60025481600101546102579190610702565b4210156102765760405162461bcd60e51b8152600401610217906105b6565b6000610281336104ca565b905060008183600001546102959190610702565b60028401805460ff19166001179055604051909150339082156108fc029083906000818181858888f193505050501580156102d4573d6000803e3d6000fd5b50825460405133917f92ccf450a286a957af52509bc1c9939d1a6a481783e142e41e2499f0bb66ebc69161030a919086906106dc565b60405180910390a2505050565b60015481565b6003546001600160a01b031681565b6003546001600160a01b031633146103565760405162461bcd60e51b815260040161021790610641565b600255565b6003546001600160a01b031633146103855760405162461bcd60e51b815260040161021790610641565b600155565b6003546001600160a01b031633146103b45760405162461bcd60e51b815260040161021790610641565b6003546040516001600160a01b03909116904780156108fc02916000818181858888f193505050501580156103ed573d6000803e3d6000fd5b50565b60025481565b600034116104165760405162461bcd60e51b815260040161021790610690565b33600090815260208190526040902054156104435760405162461bcd60e51b8152600401610217906105ed565b604080516060810182523480825242602080840182815260008587018181523380835293829052908790209551865590516001860155516002909401805460ff191694151594909417909355925191927f1449c6dd7851abc30abf37f57715f492010519147cc2652fbc38202c18a6ee90926104c09291906106dc565b60405180910390a2565b6001600160a01b038116600090815260208190526040812080546105005760405162461bcd60e51b815260040161021790610668565b60008160010154426105129190610759565b9050600060025482106105545760025461052d90606461073a565b6001548454849161053d9161073a565b610547919061073a565b610551919061071a565b90505b949350505050565b60006020828403121561056d578081fd5b81356001600160a01b0381168114610583578182fd5b9392505050565b60006020828403121561059b578081fd5b5035919050565b6001600160a01b0391909116815260200190565b6020808252601c908201527f5374616b696e6720706572696f64206e6f742079657420656e64656400000000604082015260600190565b6020808252600f908201526e416c7265616479207374616b696e6760881b604082015260600190565b60208082526011908201527020b63932b0b23c903bb4ba34323930bbb760791b604082015260600190565b6020808252600d908201526c2737ba103a34329037bbb732b960991b604082015260600190565b6020808252600e908201526d139bc81cdd185ad948199bdd5b9960921b604082015260600190565b60208082526023908201527f5374616b6520616d6f756e74206d75737420626520677265617465722074686160408201526206e20360ec1b606082015260800190565b90815260200190565b918252602082015260400190565b92835260208301919091521515604082015260600190565b6000821982111561071557610715610770565b500190565b60008261073557634e487b7160e01b81526012600452602481fd5b500490565b600081600019048311821515161561075457610754610770565b500290565b60008282101561076b5761076b610770565b500390565b634e487b7160e01b600052601160045260246000fdfea264697066735822122066f3e068742c64b5aca9e7b5645c2f0b03d6c82152518ad737d00fa3f02b557b64736f6c63430008010033",
  "linkReferences": {},
  "deployedLinkReferences": {}
}