{
  "_format": "hh-sol-artifact-1",
  "contractName": "ERC20Staking",
  "sourceName": "contracts/ERC20Staking.sol",
  "abi": [
    {
      "inputs": [
        {
          "internalType": "contract IERC20",
          "name": "_stakingToken",
          "type": "address"
        },
        {
          "internalType": "uint256",
          "name": "_rewardRate",
          "type": "uint256"
        },
        {
          "internalType": "uint256",
          "name": "_stakingPeriod",
          "type": "uint256"
        }
      ],
      "stateMutability": "nonpayable",
      "type": "constructor"
    },
    {
      "anonymous": false,
      "inputs": [
        {
          "indexed": true,
          "internalType": "address",
          "name": "previousOwner",
          "type": "address"
        },
        {
          "indexed": true,
          "internalType": "address",
          "name": "newOwner",
          "type": "address"
        }
      ],
      "name": "OwnershipTransferred",
      "type": "event"
    },
    {
      "anonymous": false,
      "inputs": [
        {
          "indexed": true,
          "internalType": "address",
          "name": "user",
          "type": "address"
        },
        {
          "indexed": false,
          "internalType": "uint256",
          "name": "amount",
          "type": "uint256"
        },
        {
          "indexed": false,
          "internalType": "uint256",
          "name": "startTime",
          "type": "uint256"
        }
      ],
      "name": "Staked",
      "type": "event"
    },
    {
      "anonymous": false,
      "inputs": [
        {
          "indexed": true,
          "internalType": "address",
          "name": "user",
          "type": "address"
        },
        {
          "indexed": false,
          "internalType": "uint256",
          "name": "amount",
          "type": "uint256"
        },
        {
          "indexed": false,
          "internalType": "uint256",
          "name": "reward",
          "type": "uint256"
        }
      ],
      "name": "Withdrawn",
      "type": "event"
    },
    {
      "inputs": [
        {
          "internalType": "address",
          "name": "_user",
          "type": "address"
        }
      ],
      "name": "calculateReward",
      "outputs": [
        {
          "internalType": "uint256",
          "name": "",
          "type": "uint256"
        }
      ],
      "stateMutability": "view",
      "type": "function"
    },
    {
      "inputs": [],
      "name": "owner",
      "outputs": [
        {
          "internalType": "address",
          "name": "",
          "type": "address"
        }
      ],
      "stateMutability": "view",
      "type": "function"
    },
    {
      "inputs": [],
      "name": "renounceOwnership",
      "outputs": [],
      "stateMutability": "nonpayable",
      "type": "function"
    },
    {
      "inputs": [],
      "name": "rewardRate",
      "outputs": [
        {
          "internalType": "uint256",
          "name": "",
          "type": "uint256"
        }
      ],
      "stateMutability": "view",
      "type": "function"
    },
    {
      "inputs": [
        {
          "internalType": "uint256",
          "name": "_rewardRate",
          "type": "uint256"
        }
      ],
      "name": "setRewardRate",
      "outputs": [],
      "stateMutability": "nonpayable",
      "type": "function"
    },
    {
      "inputs": [
        {
          "internalType": "uint256",
          "name": "_stakingPeriod",
          "type": "uint256"
        }
      ],
      "name": "setStakingPeriod",
      "outputs": [],
      "stateMutability": "nonpayable",
      "type": "function"
    },
    {
      "inputs": [
        {
          "internalType": "uint256",
          "name": "_amount",
          "type": "uint256"
        }
      ],
      "name": "stake",
      "outputs": [],
      "stateMutability": "nonpayable",
      "type": "function"
    },
    {
      "inputs": [
        {
          "internalType": "address",
          "name": "",
          "type": "address"
        }
      ],
      "name": "stakes",
      "outputs": [
        {
          "internalType": "uint256",
          "name": "amount",
          "type": "uint256"
        },
        {
          "internalType": "uint256",
          "name": "startTime",
          "type": "uint256"
        },
        {
          "internalType": "bool",
          "name": "withdrawn",
          "type": "bool"
        }
      ],
      "stateMutability": "view",
      "type": "function"
    },
    {
      "inputs": [],
      "name": "stakingPeriod",
      "outputs": [
        {
          "internalType": "uint256",
          "name": "",
          "type": "uint256"
        }
      ],
      "stateMutability": "view",
      "type": "function"
    },
    {
      "inputs": [],
      "name": "stakingToken",
      "outputs": [
        {
          "internalType": "contract IERC20",
          "name": "",
          "type": "address"
        }
      ],
      "stateMutability": "view",
      "type": "function"
    },
    {
      "inputs": [
        {
          "internalType": "address",
          "name": "newOwner",
          "type": "address"
        }
      ],
      "name": "transferOwnership",
      "outputs": [],
      "stateMutability": "nonpayable",
      "type": "function"
    },
    {
      "inputs": [],
      "name": "withdraw",
      "outputs": [],
      "stateMutability": "nonpayable",
      "type": "function"
    },
    {
      "inputs": [],
      "name": "withdrawContractBalance",
      "outputs": [],
      "stateMutability": "nonpayable",
      "type": "function"
    }
  ],
  "bytecode": "0x608060405234801561001057600080fd5b50604051610c30380380610c3083398101604081905261002f916100bf565b61003f61003a61006b565b61006f565b600180546001600160a01b0319166001600160a01b039490941693909317909255600255600355610100565b3390565b600080546001600160a01b038381166001600160a01b0319831681178455604051919092169283917f8be0079c531659141344cd1fd0a4f28419497f9722a3daafe3b4186f6b6457e09190a35050565b6000806000606084860312156100d3578283fd5b83516001600160a01b03811681146100e9578384fd5b602085015160409095015190969495509392505050565b610b218061010f6000396000f3fe608060405234801561001057600080fd5b50600436106100cf5760003560e01c8063957d77801161008c578063bfab3db911610066578063bfab3db91461017c578063c03d5b4714610184578063d82e39621461018c578063f2fde38b1461019f576100cf565b8063957d7780146101435780639e447fc614610156578063a694fc3a14610169576100cf565b806316934fc4146100d45780633ccfd60b146100ff578063715018a61461010957806372f702f3146101115780637b0a47ee146101265780638da5cb5b1461013b575b600080fd5b6100e76100e23660046107ca565b6101b2565b6040516100f693929190610a4f565b60405180910390f35b6101076101d6565b005b610107610415565b610119610429565b6040516100f69190610829565b61012e610438565b6040516100f69190610a38565b61011961043e565b610107610151366004610811565b61044d565b610107610164366004610811565b61045a565b610107610177366004610811565b610467565b6101076105ac565b61012e6105f7565b61012e61019a3660046107ca565b6105fd565b6101076101ad3660046107ca565b6106c9565b60046020526000908152604090208054600182015460029092015490919060ff1683565b336000908152600460205260409020805461020c5760405162461bcd60e51b8152600401610203906109ab565b60405180910390fd5b600281015460ff16156102315760405162461bcd60e51b815260040161020390610980565b60035481600101546102439190610a67565b4210156102625760405162461bcd60e51b8152600401610203906108e9565b600061026d336105fd565b825490915060009061027f9083610700565b60028401805460ff1916600190811790915554845460405163a9059cbb60e01b81529293506001600160a01b039091169163a9059cbb916102c591339190600401610861565b602060405180830381600087803b1580156102df57600080fd5b505af11580156102f3573d6000803e3d6000fd5b505050506040513d601f19601f8201168201806040525081019061031791906107f1565b6103335760405162461bcd60e51b8152600401610203906108c0565b60015460405163a9059cbb60e01b81526001600160a01b039091169063a9059cbb906103659033908690600401610861565b602060405180830381600087803b15801561037f57600080fd5b505af1158015610393573d6000803e3d6000fd5b505050506040513d601f19601f820116820180604052508101906103b791906107f1565b6103d35760405162461bcd60e51b815260040161020390610a08565b825460405133917f92ccf450a286a957af52509bc1c9939d1a6a481783e142e41e2499f0bb66ebc69161040891908690610a41565b60405180910390a2505050565b61041d610713565b6104276000610752565b565b6001546001600160a01b031681565b60025481565b6000546001600160a01b031690565b610455610713565b600355565b610462610713565b600255565b600081116104875760405162461bcd60e51b815260040161020390610920565b6001546040516323b872dd60e01b81526001600160a01b03909116906323b872dd906104bb9033903090869060040161083d565b602060405180830381600087803b1580156104d557600080fd5b505af11580156104e9573d6000803e3d6000fd5b505050506040513d601f19601f8201168201806040525081019061050d91906107f1565b6105295760405162461bcd60e51b8152600401610203906108c0565b3360009081526004602052604090208054156105575760405162461bcd60e51b815260040161020390610957565b818155426001820181905560028201805460ff1916905560405133917f1449c6dd7851abc30abf37f57715f492010519147cc2652fbc38202c18a6ee90916105a0918691610a41565b60405180910390a25050565b6105b4610713565b6105bc61043e565b6001600160a01b03166108fc479081150290604051600060405180830381858888f193505050501580156105f4573d6000803e3d6000fd5b50565b60035481565b6001600160a01b03811660009081526004602090815260408083208151606081018352815480825260018301549482019490945260029091015460ff161515918101919091529015806106605750600354816020015161065d9190610a67565b42105b1561066f5760009150506106c4565b60006106888260200151426107a290919063ffffffff16565b90506106bf670de0b6b3a76400006106b9836106b360025487600001516107ae90919063ffffffff16565b906107ae565b906107ba565b925050505b919050565b6106d1610713565b6001600160a01b0381166106f75760405162461bcd60e51b81526004016102039061087a565b6105f481610752565b600061070c8284610a67565b9392505050565b61071b6107c6565b6001600160a01b031661072c61043e565b6001600160a01b0316146104275760405162461bcd60e51b8152600401610203906109d3565b600080546001600160a01b038381166001600160a01b0319831681178455604051919092169283917f8be0079c531659141344cd1fd0a4f28419497f9722a3daafe3b4186f6b6457e09190a35050565b600061070c8284610abe565b600061070c8284610a9f565b600061070c8284610a7f565b3390565b6000602082840312156107db578081fd5b81356001600160a01b038116811461070c578182fd5b600060208284031215610802578081fd5b8151801515811461070c578182fd5b600060208284031215610822578081fd5b5035919050565b6001600160a01b0391909116815260200190565b6001600160a01b039384168152919092166020820152604081019190915260600190565b6001600160a01b03929092168252602082015260400190565b60208082526026908201527f4f776e61626c653a206e6577206f776e657220697320746865207a65726f206160408201526564647265737360d01b606082015260800190565b6020808252600f908201526e151c985b9cd9995c8819985a5b1959608a1b604082015260600190565b6020808252601c908201527f5374616b696e6720706572696f64206e6f742079657420656e64656400000000604082015260600190565b6020808252601d908201527f416d6f756e74206d7573742062652067726561746572207468616e2030000000604082015260600190565b6020808252600f908201526e416c7265616479207374616b696e6760881b604082015260600190565b60208082526011908201527020b63932b0b23c903bb4ba34323930bbb760791b604082015260600190565b6020808252600e908201526d139bc81cdd185ad948199bdd5b9960921b604082015260600190565b6020808252818101527f4f776e61626c653a2063616c6c6572206973206e6f7420746865206f776e6572604082015260600190565b60208082526016908201527514995dd85c99081d1c985b9cd9995c8819985a5b195960521b604082015260600190565b90815260200190565b918252602082015260400190565b92835260208301919091521515604082015260600190565b60008219821115610a7a57610a7a610ad5565b500190565b600082610a9a57634e487b7160e01b81526012600452602481fd5b500490565b6000816000190483118215151615610ab957610ab9610ad5565b500290565b600082821015610ad057610ad0610ad5565b500390565b634e487b7160e01b600052601160045260246000fdfea2646970667358221220cb72e5d13e4212549fe0c50ece59cf5c68d7d96c411922c26382ff83826f57b864736f6c63430008010033",
  "linkReferences": {},
  "deployedLinkReferences": {}
}